:1000000020C027C026C025C024C023C022C021C0D4
:1000100020C01FC01EC01DC01CC01BC01AC00000D5
:10002000000037000000000038000102000004005A
:10003000000000003600020202020202010204086F
:10004000102011241FBECFE5D2E0DEBFCDBF7AD095
:10005000E9C0D6CF90E0FC01E65DFF4F3491FC0192
:10006000E45CFF4F2491FC01EA5CFF4FE491EE2336
:10007000B9F0332329F03130A1F48AB58F778ABDE6
:10008000F0E0EE0FFF1FEC5DFF4FA591B4918FB72D
:10009000611118C0F894EC9120952E232C938FBFFA
:1000A0000895323019F48AB58F7DE9CF333021F4C9
:1000B00080B78F7D80BFE4CF343011F78CB58F7D52
:1000C0008CBDDECFF894EC912E2BE8CFCF93DF934D
:1000D00090E0FC01E45CFF4F24918A5C9F4FFC019F
:1000E00084918823C9F090E0880F991FFC01E25E9B
:1000F000FF4FA591B491FC01EC5DFF4FC591D491E8
:1001000061110DC09FB7F8948C91209582238C9338
:100110008881282328839FBFDF91CF910895623083
:1001200051F49FB7F8943C91822F809583238C9350
:10013000E8812E2BEFCF8FB7F894EC912E2B2C93D8
:100140008FBFEACF83E08ABD82E083BF789480E4EA
:100150008CBD8FEF8DBD86EC80BF86B188778068BF
:1001600086B9379A61E082E0B1DF61E081E0AEDF1D
:1001700061E080E0ABDF62E084E0A8DF60E083E084
:10018000A5DF61E082E066DF61E081E063DF61E0DE
:1001900080E060DFCFE3D0E009E310E030E4E32E5D
:1001A00030E0F32E4AE3C42E40E0D42E60E082E03B
:1001B00051DFFE018491F80194919923A9F0E92F70
:1001C000F0E0EE0FFF1FE05DFF4FA591B4919C9111
:1001D000892351F060E082E079DF61E081E03ADF7D
:1001E00060E080E037DFE2CFF7018491F60194917F
:1001F000992399F0E92FF0E0EE0FFF1FE05DFF4F2C
:10020000A591B4919C91892341F061E082E05EDF89
:1002100061E081E01FDF61E0E4CF60E082E056DF73
:0802200060E0F7CFF894FFCF76
:00000001FF
